:1000000091044D05930513067906E906EB060000F9
:10001000DFF8641308707047DFF8600300680005BC
:10002000FAD0DFF854030078C0B2704710B5DFF89B
:100030005003006850F44070DFF844130860DFF8A4
:100040004403006850F01000DFF838130860DFF850
:1000500038030468062000F0B9F934F00600DFF830
:1000600028130860C848006850F00100C6490860BD
:100070000020C64908600020C54908600120C54924
:1000800008600220C44908600020C44908600020BC
:10009000C34908600020C349086010BD2DE9F04144
:1000A00004000D001600B6B2002E01D1002048E079
:1000B000B6B2112E01DB102006004FF4407000F0A4
:1000C00085F980465FF4401000F080F95FF440301D
:1000D00000F07CF95FF4402000F078F9032010FA7A
:1000E00008F010F44070B0490860B6B2AF4806603E
:1000F0000320FFF78DFF200CC0B2FFF789FF200A15
:10010000C0B2FFF785FF2000C0B2FFF781FF0120DA
:100110009E490860002007003800310080B289B293
:10012000884205D2FFF778FFBFB2E8557F1CF3E79E
:100130009F480068C007FBD4002094490860300045
:1001400080B2BDE8F08138B54FF4407000F03EF960
:1001500005005FF4401000F039F95FF4403000F022
:1001600035F95FF4402000F031F90320A84010F485
:1001700040708D49086003208C4908600120834944
:1001800008609F20FFF744FFFFF746FF0400FFF7DA
:1001900043FF54EA00200400FFF73EFF54EA00400A
:1001A000040083480068C007FBD40020774908603A
:1001B000200032BD38B54FF4407000F007F905005B
:1001C0005FF4401000F002F95FF4403000F0FEF8F8
:1001D0005FF4402000F0FAF80320A84010F44070CB
:1001E0007149086001207149086001206749086071
:1001F0000520FFF70DFFFFF70FFF04006C480068B4
:10020000C007FBD40020614908602000C0B232BDA5
:1002100038B504004FF4407000F0D8F805005FF4E2
:10022000401000F0D3F85FF4403000F0CFF85FF4F6
:10023000402000F0CBF80120A84010F440705A494B
:1002400008600120514908602000C0B2FFF7E0FEBD
:1002500057480068C007FBD400204C49086031BDF6
:1002600038B504004FF4407000F0B0F805005FF4BA
:10027000401000F0ABF85FF4403000F0A7F85FF4F6
:10028000402000F0A3F80120A84010F44070464937
:10029000086001203D4908602020FFF7B9FE200CCE
:1002A000C0B2FFF7B5FE200AC0B2FFF7B1FE2000D2
:1002B000C0B2FFF7ADFE3E480068C007FBD4002087
:1002C0003249086031BD2DE9F04104000D001600EF
:1002D000B6B2002E01D100204BE0B6B2B6F5807F59
:1002E00002DD4FF4807006004FF4407000F06EF8AD
:1002F00080465FF4401000F069F85FF4403000F091
:1003000065F85FF4402000F061F8012010FA08F071
:1003100010F440702449086001201C490860022044
:10032000FFF776FE200CC0B2FFF772FE200AC0B2C3
:10033000FFF76EFE2000C0B2FFF76AFE0020070044
:100340003800310080B289B2884205D2BFB2E85D80
:10035000FFF75EFE7F1CF3E7154800684007FBD5FA
:1003600013480068C007FBD400200849086030002B
:1003700080B2BDE8F0810000606000402460004071
:100380003002004010020040C002004008600040FF
:100390002C60004010600040146000401860004075
:1003A0001C6000404C600040006000400460004061
:1003B0002860004080B5FFF7FDFEC007FBD401BDFB
:1003C00080B5FFF7F7FE8007FBD501BD90FAA0F0DE
:1003D000B0FA80F070470000010051EA510151EA83
:1003E000910151EA111151EA112151EA1141064AD4
:1003F0007A441432DFF8B03203FB01F3DB0E52F81B
:1004000023201000704700BF80030000DFF89C022B
:10041000006850F04070DFF894120860DFF8900236
:10042000006850F48070DFF888120860FF20DFF861
:1004300084120860FF20DFF880120860704780B5E2
:1004400000F054F901BD0120DFF870120860704718
:1004500080B571B672B6FFF7F6FFFFF7D7FFFFF76B
:10046000EEFF01BD80B5FFF7E1FDFFF7A3FFFFF74A
:100470006AFEFFF79FFF92480068FFF7ADFF9149C2
:10048000086091480068FFF7A7FF9049086001BD28
:10049000F8B504000D0016008D4800688D498842AB
:1004A00004D18D4800688D49884209D0894888491F
:1004B00008608A4888490860FFF7CAFFFFF7D2FF43
:1004C0008148006886490968864A12685143B1FB31
:1004D000F0F2736840271F807A4F3F689F700027B3
:1004E000DF7001271F7101275F7100279F710127AE
:1004F000DF7101271F7200275F7201279F7201279A
:100500001F610027DFF8DCC1DCF800C067451CD2A2
:10051000DFF8CCC1DCF800C00CFB07FC5FF00C0E70
:100520000EFB07FE9E44CEF814C05FF00C0C0CFBD3
:1005300007FC9C44CCF818205FF00C0C0CFB07FC6B
:100540009C44CCF81C007F1CDCE7F1BD2DE9F04792
:1005500004000D0016007769D6F81080D6F80490D4
:10056000002F14D0200000F0C0F8112F02D35FF04C
:10057000100A00E0BA46524692B249464046FFF79A
:100580008DFD1AEB0808D144B7EB0A07E8E7BDE890
:10059000F0872DE9F84F04000D00160000202860B8
:1005A000776948480068B84638FA00F8D6F81090DD
:1005B0004448006839FA00F9D6F804A0B8F1000FF1
:1005C00025D0B7F5807F02D94FF4807B00E0BB4691
:1005D000FFF7F0FE0620FFF71BFEFFF7F1FE5A467D
:1005E00092B251463648006800FB09F0FFF76BFEF7
:1005F000FFF7E0FE0420FFF70BFEFFF7DBFEDA4417
:10060000B7EB0B07B8F1010819F10109D6E7BDE80E
:10061000F18F2DE9F84304000D00160030692B49D5
:100620000968C84007007069804600202860264895
:10063000006800FB07F08146B8F1000F1AD02000D7
:1006400000F053F8FFF7B6FE0620FFF7E1FDFFF7D5
:10065000B7FE4846FFF704FEFFF7ACFE0420FFF7A5
:10066000D7FDFFF7A7FE1848006810EB0909B8F19D
:100670000108E1E7BDE8F18310B504001448006803
:100680001449884204D1144800681449884209D0AA
:1006900010480F49086011480F490860FFF7D8FE5D
:1006A000FFF7E0FE10BD0000DDACC40730020040E3
:1006B0001C020040200300402403004014000040BE
:1006C000F0FFFF1FE0FFFF1FF4FFFF1FE4FFFF1F0E
:1006D000E8FFFF1FAA55AA55ECFFFF1F55AA55AA10
:1006E000F8FFFF1FFCFFFF1F7047704710B51E4843
:1006F000006850F440501C4908601C48006850F4E1
:1007000080501A4908601A4800684006FBD519480D
:1007100004685FF44000FFF759FE34F440001549C7
:1007200008601448006850F48010124908600020E6
:10073000114908601148006850F080000F490860B6
:1007400044200F49086000200B490860032403205F
:10075000FFF73CFE14FA00F010F0030007490860B0
:1007600000200849086010BD30020040100200401F
:1007700014300040C0020040043000400C30004003
:100780000030004008300040000000000900000078
:10079000010000000A0000000D000000150000002C
:1007A000020000001D0000000B0000000E00000011
:1007B00010000000120000001600000019000000E8
:1007C000030000001E000000080000000C000000F4
:1007D000140000001C0000000F00000011000000C9
:1007E0001800000007000000130000001B000000BC
:1007F00017000000060000001A00000005000000BD
:08080000040000001F000000CD
:0400000500000000F7
:00000001FF
